{"abi":[{"inputs":[],"stateMutability":"nonpayable","type":"constructor"},{"inputs":[{"internalType":"bytes16","name":"escrowID","type":"bytes16"},{"internalType":"address payable","name":"sender","type":"address"},{"internalType":"address payable","name":"receiver","type":"address"},{"internalType":"uint256","name":"value","type":"uint256"}],"name":"approve","outputs":[],"stateMutability":"nonpayable","type":"function"},{"inputs":[{"internalType":"bytes16","name":"escrowID","type":"bytes16"},{"internalType":"address payable","name":"receiver","type":"address"},{"internalType":"uint256","name":"value","type":"uint256"}],"name":"createEscrow","outputs":[],"stateMutability":"payable","type":"function"},{"inputs":[{"internalType":"bytes16","name":"escrowID","type":"bytes16"},{"internalType":"address payable","name":"sender","type":"address"},{"internalType":"address payable","name":"receiver","type":"address"},{"internalType":"uint256","name":"value","type":"uint256"}],"name":"escrowExists","outputs":[{"internalType":"bool","name":"","type":"bool"}],"stateMutability":"view","type":"function"},{"inputs":[{"internalType":"bytes16","name":"escrowID","type":"bytes16"},{"internalType":"address payable","name":"sender","type":"address"},{"internalType":"address payable","name":"receiver","type":"address"},{"internalType":"uint256","name":"value","type":"uint256"}],"name":"release","outputs":[{"internalType":"bool","name":"","type":"bool"}],"stateMutability":"payable","type":"function"}],"devdoc":{"methods":{}},"evm":{"assembly":"    /* \"PrivateEscrow.sol\":411:5817  contract PrivateEscrow {... */\n  mstore(0x40, 0x80)\n    /* \"PrivateEscrow.sol\":616:672  constructor() public {... */\n  callvalue\n    /* \"--CODEGEN--\":8:17   */\n  dup1\n    /* \"--CODEGEN--\":5:7   */\n  iszero\n  tag_1\n  jumpi\n    /* \"--CODEGEN--\":30:31   */\n  0x00\n    /* \"--CODEGEN--\":27:28   */\n  dup1\n    /* \"--CODEGEN--\":20:32   */\n  revert\n    /* \"--CODEGEN--\":5:7   */\ntag_1:\n    /* \"PrivateEscrow.sol\":616:672  constructor() public {... */\n  pop\n    /* \"PrivateEscrow.sol\":655:665  msg.sender */\n  caller\n    /* \"PrivateEscrow.sol\":647:652  owner */\n  0x00\n  dup1\n    /* \"PrivateEscrow.sol\":647:665  owner = msg.sender */\n  0x0100\n  exp\n  dup2\n  sload\n  dup2\n  0xffffffffffffffffffffffffffffffffffffffff\n  mul\n  not\n  and\n  swap1\n  dup4\n  0xffffffffffffffffffffffffffffffffffffffff\n  and\n  mul\n  or\n  swap1\n  sstore\n  pop\n    /* \"PrivateEscrow.sol\":411:5817  contract PrivateEscrow {... */\n  dataSize(sub_0)\n  dup1\n  dataOffset(sub_0)\n  0x00\n  codecopy\n  0x00\n  return\nstop\n\nsub_0: assembly {\n        /* \"PrivateEscrow.sol\":411:5817  contract PrivateEscrow {... */\n      mstore(0x40, 0x80)\n      jumpi(tag_1, lt(calldatasize, 0x04))\n      shr(0xe0, calldataload(0x00))\n      dup1\n      0x14853e9e\n      eq\n      tag_2\n      jumpi\n      dup1\n      0x6f6b360f\n      eq\n      tag_3\n      jumpi\n      dup1\n      0x949001dc\n      eq\n      tag_4\n      jumpi\n      dup1\n      0xe95aa894\n      eq\n      tag_5\n      jumpi\n    tag_1:\n      0x00\n      dup1\n      revert\n        /* \"PrivateEscrow.sol\":2618:3612  function createEscrow(... */\n    tag_2:\n      tag_6\n      0x04\n      dup1\n      calldatasize\n      sub\n        /* \"--CODEGEN--\":13:15   */\n      0x60\n        /* \"--CODEGEN--\":8:11   */\n      dup2\n        /* \"--CODEGEN--\":5:16   */\n      lt\n        /* \"--CODEGEN--\":2:4   */\n      iszero\n      tag_7\n      jumpi\n        /* \"--CODEGEN--\":29:30   */\n      0x00\n        /* \"--CODEGEN--\":26:27   */\n      dup1\n        /* \"--CODEGEN--\":19:31   */\n      revert\n        /* \"--CODEGEN--\":2:4   */\n    tag_7:\n        /* \"PrivateEscrow.sol\":2618:3612  function createEscrow(... */\n      dup2\n      add\n      swap1\n      dup1\n      dup1\n      calldataload\n      not(0xffffffffffffffffffffffffffffffff)\n      and\n      swap1\n      0x20\n      add\n      swap1\n      swap3\n      swap2\n      swap1\n      dup1\n      calldataload\n      0xffffffffffffffffffffffffffffffffffffffff\n      and\n      swap1\n      0x20\n      add\n      swap1\n      swap3\n      swap2\n      swap1\n      dup1\n      calldataload\n      swap1\n      0x20\n      add\n      swap1\n      swap3\n      swap2\n      swap1\n      pop\n      pop\n      pop\n      tag_8\n      jump\t// in\n    tag_6:\n      stop\n        /* \"PrivateEscrow.sol\":3875:4825  function approve(... */\n    tag_3:\n      callvalue\n        /* \"--CODEGEN--\":8:17   */\n      dup1\n        /* \"--CODEGEN--\":5:7   */\n      iszero\n      tag_9\n      jumpi\n        /* \"--CODEGEN--\":30:31   */\n      0x00\n        /* \"--CODEGEN--\":27:28   */\n      dup1\n        /* \"--CODEGEN--\":20:32   */\n      revert\n        /* \"--CODEGEN--\":5:7   */\n    tag_9:\n        /* \"PrivateEscrow.sol\":3875:4825  function approve(... */\n      pop\n      tag_10\n      0x04\n      dup1\n      calldatasize\n      sub\n        /* \"--CODEGEN--\":13:16   */\n      0x80\n        /* \"--CODEGEN--\":8:11   */\n      dup2\n        /* \"--CODEGEN--\":5:17   */\n      lt\n        /* \"--CODEGEN--\":2:4   */\n      iszero\n      tag_11\n      jumpi\n        /* \"--CODEGEN--\":30:31   */\n      0x00\n        /* \"--CODEGEN--\":27:28   */\n      dup1\n        /* \"--CODEGEN--\":20:32   */\n      revert\n        /* \"--CODEGEN--\":2:4   */\n    tag_11:\n        /* \"PrivateEscrow.sol\":3875:4825  function approve(... */\n      dup2\n      add\n      swap1\n      dup1\n      dup1\n      calldataload\n      not(0xffffffffffffffffffffffffffffffff)\n      and\n      swap1\n      0x20\n      add\n      swap1\n      swap3\n      swap2\n      swap1\n      dup1\n      calldataload\n      0xffffffffffffffffffffffffffffffffffffffff\n      and\n      swap1\n      0x20\n      add\n      swap1\n      swap3\n      swap2\n      swap1\n      dup1\n      calldataload\n      0xffffffffffffffffffffffffffffffffffffffff\n      and\n      swap1\n      0x20\n      add\n      swap1\n      swap3\n      swap2\n      swap1\n      dup1\n      calldataload\n      swap1\n      0x20\n      add\n      swap1\n      swap3\n      swap2\n      swap1\n      pop\n      pop\n      pop\n      tag_12\n      jump\t// in\n    tag_10:\n      stop\n        /* \"PrivateEscrow.sol\":2110:2612  function escrowExists(... */\n    tag_4:\n      callvalue\n        /* \"--CODEGEN--\":8:17   */\n      dup1\n        /* \"--CODEGEN--\":5:7   */\n      iszero\n      tag_13\n      jumpi\n        /* \"--CODEGEN--\":30:31   */\n      0x00\n        /* \"--CODEGEN--\":27:28   */\n      dup1\n        /* \"--CODEGEN--\":20:32   */\n      revert\n        /* \"--CODEGEN--\":5:7   */\n    tag_13:\n        /* \"PrivateEscrow.sol\":2110:2612  function escrowExists(... */\n      pop\n      tag_14\n      0x04\n      dup1\n      calldatasize\n      sub\n        /* \"--CODEGEN--\":13:16   */\n      0x80\n        /* \"--CODEGEN--\":8:11   */\n      dup2\n        /* \"--CODEGEN--\":5:17   */\n      lt\n        /* \"--CODEGEN--\":2:4   */\n      iszero\n      tag_15\n      jumpi\n        /* \"--CODEGEN--\":30:31   */\n      0x00\n        /* \"--CODEGEN--\":27:28   */\n      dup1\n        /* \"--CODEGEN--\":20:32   */\n      revert\n        /* \"--CODEGEN--\":2:4   */\n    tag_15:\n        /* \"PrivateEscrow.sol\":2110:2612  function escrowExists(... */\n      dup2\n      add\n      swap1\n      dup1\n      dup1\n      calldataload\n      not(0xffffffffffffffffffffffffffffffff)\n      and\n      swap1\n      0x20\n      add\n      swap1\n      swap3\n      swap2\n      swap1\n      dup1\n      calldataload\n      0xffffffffffffffffffffffffffffffffffffffff\n      and\n      swap1\n      0x20\n      add\n      swap1\n      swap3\n      swap2\n      swap1\n      dup1\n      calldataload\n      0xffffffffffffffffffffffffffffffffffffffff\n      and\n      swap1\n      0x20\n      add\n      swap1\n      swap3\n      swap2\n      swap1\n      dup1\n      calldataload\n      swap1\n      0x20\n      add\n      swap1\n      swap3\n      swap2\n      swap1\n      pop\n      pop\n      pop\n      tag_16\n      jump\t// in\n    tag_14:\n      mload(0x40)\n      dup1\n      dup3\n      iszero\n      iszero\n      iszero\n      iszero\n      dup2\n      mstore\n      0x20\n      add\n      swap2\n      pop\n      pop\n      mload(0x40)\n      dup1\n      swap2\n      sub\n      swap1\n      return\n        /* \"PrivateEscrow.sol\":5172:5815  function release(... */\n    tag_5:\n      tag_17\n      0x04\n      dup1\n      calldatasize\n      sub\n        /* \"--CODEGEN--\":13:16   */\n      0x80\n        /* \"--CODEGEN--\":8:11   */\n      dup2\n        /* \"--CODEGEN--\":5:17   */\n      lt\n        /* \"--CODEGEN--\":2:4   */\n      iszero\n      tag_18\n      jumpi\n        /* \"--CODEGEN--\":30:31   */\n      0x00\n        /* \"--CODEGEN--\":27:28   */\n      dup1\n        /* \"--CODEGEN--\":20:32   */\n      revert\n        /* \"--CODEGEN--\":2:4   */\n    tag_18:\n        /* \"PrivateEscrow.sol\":5172:5815  function release(... */\n      dup2\n      add\n      swap1\n      dup1\n      dup1\n      calldataload\n      not(0xffffffffffffffffffffffffffffffff)\n      and\n      swap1\n      0x20\n      add\n      swap1\n      swap3\n      swap2\n      swap1\n      dup1\n      calldataload\n      0xffffffffffffffffffffffffffffffffffffffff\n      and\n      swap1\n      0x20\n      add\n      swap1\n      swap3\n      swap2\n      swap1\n      dup1\n      calldataload\n      0xffffffffffffffffffffffffffffffffffffffff\n      and\n      swap1\n      0x20\n      add\n      swap1\n      swap3\n      swap2\n      swap1\n      dup1\n      calldataload\n      swap1\n      0x20\n      add\n      swap1\n      swap3\n      swap2\n      swap1\n      pop\n      pop\n      pop\n      tag_19\n      jump\t// in\n    tag_17:\n      mload(0x40)\n      dup1\n      dup3\n      iszero\n      iszero\n      iszero\n      iszero\n      dup2\n      mstore\n      0x20\n      add\n      swap2\n      pop\n      pop\n      mload(0x40)\n      dup1\n      swap2\n      sub\n      swap1\n      return\n        /* \"PrivateEscrow.sol\":2618:3612  function createEscrow(... */\n    tag_8:\n        /* \"PrivateEscrow.sol\":3124:3146  address payable sender */\n      0x00\n        /* \"PrivateEscrow.sol\":3149:3159  msg.sender */\n      caller\n        /* \"PrivateEscrow.sol\":3124:3159  address payable sender = msg.sender */\n      swap1\n      pop\n        /* \"PrivateEscrow.sol\":3169:3186  bytes32 tradeHash */\n      0x00\n        /* \"PrivateEscrow.sol\":3189:3237  getEscrowHash(escrowID, sender, receiver, value) */\n      tag_21\n        /* \"PrivateEscrow.sol\":3203:3211  escrowID */\n      dup6\n        /* \"PrivateEscrow.sol\":3213:3219  sender */\n      dup4\n        /* \"PrivateEscrow.sol\":3221:3229  receiver */\n      dup7\n        /* \"PrivateEscrow.sol\":3231:3236  value */\n      dup7\n        /* \"PrivateEscrow.sol\":3189:3202  getEscrowHash */\n      tag_22\n        /* \"PrivateEscrow.sol\":3189:3237  getEscrowHash(escrowID, sender, receiver, value) */\n      jump\t// in\n    tag_21:\n        /* \"PrivateEscrow.sol\":3169:3237  bytes32 tradeHash = getEscrowHash(escrowID, sender, receiver, value) */\n      swap1\n      pop\n        /* \"PrivateEscrow.sol\":3256:3263  escrows */\n      0x01\n        /* \"PrivateEscrow.sol\":3256:3274  escrows[tradeHash] */\n      0x00\n        /* \"PrivateEscrow.sol\":3264:3273  tradeHash */\n      dup3\n        /* \"PrivateEscrow.sol\":3256:3274  escrows[tradeHash] */\n      dup2\n      mstore\n      0x20\n      add\n      swap1\n      dup2\n      mstore\n      0x20\n      add\n      0x00\n      keccak256\n        /* \"PrivateEscrow.sol\":3256:3281  escrows[tradeHash].exists */\n      0x00\n      add\n      0x00\n      swap1\n      sload\n      swap1\n      0x0100\n      exp\n      swap1\n      div\n      0xff\n      and\n        /* \"PrivateEscrow.sol\":3255:3281  !escrows[tradeHash].exists */\n      iszero\n        /* \"PrivateEscrow.sol\":3247:3307  require(!escrows[tradeHash].exists, \"could not find escrow\") */\n      tag_23\n      jumpi\n      mload(0x40)\n      0x08c379a000000000000000000000000000000000000000000000000000000000\n      dup2\n      mstore\n      0x04\n      add\n      dup1\n      dup1\n      0x20\n      add\n      dup3\n      dup2\n      sub\n      dup3\n      mstore\n      0x15\n      dup2\n      mstore\n      0x20\n      add\n      dup1\n      0x636f756c64206e6f742066696e6420657363726f770000000000000000000000\n      dup2\n      mstore\n      pop\n      0x20\n      add\n      swap2\n      pop\n      pop\n      mload(0x40)\n      dup1\n      swap2\n      sub\n      swap1\n      revert\n    tag_23:\n        /* \"PrivateEscrow.sol\":3383:3388  value */\n      dup3\n        /* \"PrivateEscrow.sol\":3370:3379  msg.value */\n      callvalue\n        /* \"PrivateEscrow.sol\":3370:3388  msg.value == value */\n      eq\n        /* \"PrivateEscrow.sol\":3370:3405  msg.value == value && msg.value > 0 */\n      dup1\n      iszero\n      tag_24\n      jumpi\n      pop\n        /* \"PrivateEscrow.sol\":3404:3405  0 */\n      0x00\n        /* \"PrivateEscrow.sol\":3392:3401  msg.value */\n      callvalue\n        /* \"PrivateEscrow.sol\":3392:3405  msg.value > 0 */\n      gt\n        /* \"PrivateEscrow.sol\":3370:3405  msg.value == value && msg.value > 0 */\n    tag_24:\n        /* \"PrivateEscrow.sol\":3362:3425  require(msg.value == value && msg.value > 0, \"incorrect value\") */\n      tag_25\n      jumpi\n      mload(0x40)\n      0x08c379a000000000000000000000000000000000000000000000000000000000\n      dup2\n      mstore\n      0x04\n      add\n      dup1\n      dup1\n      0x20\n      add\n      dup3\n      dup2\n      sub\n      dup3\n      mstore\n      0x0f\n      dup2\n      mstore\n      0x20\n      add\n      dup1\n      0x696e636f72726563742076616c75650000000000000000000000000000000000\n      dup2\n      mstore\n      pop\n      0x20\n      add\n      swap2\n      pop\n      pop\n      mload(0x40)\n      dup1\n      swap2\n      sub\n      swap1\n      revert\n    tag_25:\n        /* \"PrivateEscrow.sol\":3519:3545  Escrow(true, false, false) */\n      mload(0x40)\n      dup1\n      0x60\n      add\n      0x40\n      mstore\n      dup1\n        /* \"PrivateEscrow.sol\":3526:3530  true */\n      0x01\n        /* \"PrivateEscrow.sol\":3519:3545  Escrow(true, false, false) */\n      iszero\n      iszero\n      dup2\n      mstore\n      0x20\n      add\n        /* \"PrivateEscrow.sol\":3532:3537  false */\n      0x00\n        /* \"PrivateEscrow.sol\":3519:3545  Escrow(true, false, false) */\n      iszero\n      iszero\n      dup2\n      mstore\n      0x20\n      add\n        /* \"PrivateEscrow.sol\":3539:3544  false */\n      0x00\n        /* \"PrivateEscrow.sol\":3519:3545  Escrow(true, false, false) */\n      iszero\n      iszero\n      dup2\n      mstore\n      pop\n        /* \"PrivateEscrow.sol\":3498:3505  escrows */\n      0x01\n        /* \"PrivateEscrow.sol\":3498:3516  escrows[tradeHash] */\n      0x00\n        /* \"PrivateEscrow.sol\":3506:3515  tradeHash */\n      dup4\n        /* \"PrivateEscrow.sol\":3498:3516  escrows[tradeHash] */\n      dup2\n      mstore\n      0x20\n      add\n      swap1\n      dup2\n      mstore\n      0x20\n      add\n      0x00\n      keccak256\n        /* \"PrivateEscrow.sol\":3498:3545  escrows[tradeHash] = Escrow(true, false, false) */\n      0x00\n      dup3\n      add\n      mload\n      dup2\n      0x00\n      add\n      exp(0x0100, 0x00)\n      dup2\n      sload\n      dup2\n      0xff\n      mul\n      not\n      and\n      swap1\n      dup4\n      iszero\n      iszero\n      mul\n      or\n      swap1\n      sstore\n      pop\n      0x20\n      dup3\n      add\n      mload\n      dup2\n      0x00\n      add\n      exp(0x0100, 0x01)\n      dup2\n      sload\n      dup2\n      0xff\n      mul\n      not\n      and\n      swap1\n      dup4\n      iszero\n      iszero\n      mul\n      or\n      swap1\n      sstore\n      pop\n      0x40\n      dup3\n      add\n      mload\n      dup2\n      0x00\n      add\n      exp(0x0100, 0x02)\n      dup2\n      sload\n      dup2\n      0xff\n      mul\n      not\n      and\n      swap1\n      dup4\n      iszero\n      iszero\n      mul\n      or\n      swap1\n      sstore\n      pop\n      swap1\n      pop\n      pop\n        /* \"PrivateEscrow.sol\":2618:3612  function createEscrow(... */\n      pop\n      pop\n      pop\n      pop\n      pop\n      jump\t// out\n        /* \"PrivateEscrow.sol\":3875:4825  function approve(... */\n    tag_12:\n        /* \"PrivateEscrow.sol\":4040:4046  sender */\n      dup3\n        /* \"PrivateEscrow.sol\":4048:4056  receiver */\n      dup3\n        /* \"PrivateEscrow.sol\":1250:1256  sender */\n      dup2\n        /* \"PrivateEscrow.sol\":1236:1256  msg.sender == sender */\n      0xffffffffffffffffffffffffffffffffffffffff\n      and\n        /* \"PrivateEscrow.sol\":1236:1246  msg.sender */\n      caller\n        /* \"PrivateEscrow.sol\":1236:1256  msg.sender == sender */\n      0xffffffffffffffffffffffffffffffffffffffff\n      and\n      eq\n        /* \"PrivateEscrow.sol\":1236:1282  msg.sender == sender || msg.sender == receiver */\n      dup1\n      tag_27\n      jumpi\n      pop\n        /* \"PrivateEscrow.sol\":1274:1282  receiver */\n      dup1\n        /* \"PrivateEscrow.sol\":1260:1282  msg.sender == receiver */\n      0xffffffffffffffffffffffffffffffffffffffff\n      and\n        /* \"PrivateEscrow.sol\":1260:1270  msg.sender */\n      caller\n        /* \"PrivateEscrow.sol\":1260:1282  msg.sender == receiver */\n      0xffffffffffffffffffffffffffffffffffffffff\n      and\n      eq\n        /* \"PrivateEscrow.sol\":1236:1282  msg.sender == sender || msg.sender == receiver */\n    tag_27:\n        /* \"PrivateEscrow.sol\":1228:1298  require(msg.sender == sender || msg.sender == receiver, \"not allowed\") */\n      tag_28\n      jumpi\n      mload(0x40)\n      0x08c379a000000000000000000000000000000000000000000000000000000000\n      dup2\n      mstore\n      0x04\n      add\n      dup1\n      dup1\n      0x20\n      add\n      dup3\n      dup2\n      sub\n      dup3\n      mstore\n      0x0b\n      dup2\n      mstore\n      0x20\n      add\n      dup1\n      0x6e6f7420616c6c6f776564000000000000000000000000000000000000000000\n      dup2\n      mstore\n      pop\n      0x20\n      add\n      swap2\n      pop\n      pop\n      mload(0x40)\n      dup1\n      swap2\n      sub\n      swap1\n      revert\n    tag_28:\n        /* \"PrivateEscrow.sol\":4068:4085  bytes32 tradeHash */\n      0x00\n        /* \"PrivateEscrow.sol\":4088:4136  getEscrowHash(escrowID, sender, receiver, value) */\n      tag_30\n        /* \"PrivateEscrow.sol\":4102:4110  escrowID */\n      dup8\n        /* \"PrivateEscrow.sol\":4112:4118  sender */\n      dup8\n        /* \"PrivateEscrow.sol\":4120:4128  receiver */\n      dup8\n        /* \"PrivateEscrow.sol\":4130:4135  value */\n      dup8\n        /* \"PrivateEscrow.sol\":4088:4101  getEscrowHash */\n      tag_22\n        /* \"PrivateEscrow.sol\":4088:4136  getEscrowHash(escrowID, sender, receiver, value) */\n      jump\t// in\n    tag_30:\n        /* \"PrivateEscrow.sol\":4068:4136  bytes32 tradeHash = getEscrowHash(escrowID, sender, receiver, value) */\n      swap1\n      pop\n        /* \"PrivateEscrow.sol\":4154:4161  escrows */\n      0x01\n        /* \"PrivateEscrow.sol\":4154:4172  escrows[tradeHash] */\n      0x00\n        /* \"PrivateEscrow.sol\":4162:4171  tradeHash */\n      dup3\n        /* \"PrivateEscrow.sol\":4154:4172  escrows[tradeHash] */\n      dup2\n      mstore\n      0x20\n      add\n      swap1\n      dup2\n      mstore\n      0x20\n      add\n      0x00\n      keccak256\n        /* \"PrivateEscrow.sol\":4154:4179  escrows[tradeHash].exists */\n      0x00\n      add\n      0x00\n      swap1\n      sload\n      swap1\n      0x0100\n      exp\n      swap1\n      div\n      0xff\n      and\n        /* \"PrivateEscrow.sol\":4146:4200  require(escrows[tradeHash].exists, \"escrow not found\") */\n      tag_31\n      jumpi\n      mload(0x40)\n      0x08c379a000000000000000000000000000000000000000000000000000000000\n      dup2\n      mstore\n      0x04\n      add\n      dup1\n      dup1\n      0x20\n      add\n      dup3\n      dup2\n      sub\n      dup3\n      mstore\n      0x10\n      dup2\n      mstore\n      0x20\n      add\n      dup1\n      0x657363726f77206e6f7420666f756e6400000000000000000000000000000000\n      dup2\n      mstore\n      pop\n      0x20\n      add\n      swap2\n      pop\n      pop\n      mload(0x40)\n      dup1\n      swap2\n      sub\n      swap1\n      revert\n    tag_31:\n        /* \"PrivateEscrow.sol\":4411:4417  sender */\n      dup6\n        /* \"PrivateEscrow.sol\":4397:4417  msg.sender == sender */\n      0xffffffffffffffffffffffffffffffffffffffff\n      and\n        /* \"PrivateEscrow.sol\":4397:4407  msg.sender */\n      caller\n        /* \"PrivateEscrow.sol\":4397:4417  msg.sender == sender */\n      0xffffffffffffffffffffffffffffffffffffffff\n      and\n      eq\n        /* \"PrivateEscrow.sol\":4393:4819  if (msg.sender == sender) {... */\n      iszero\n      tag_32\n      jumpi\n        /* \"PrivateEscrow.sol\":4459:4466  escrows */\n      0x01\n        /* \"PrivateEscrow.sol\":4459:4477  escrows[tradeHash] */\n      0x00\n        /* \"PrivateEscrow.sol\":4467:4476  tradeHash */\n      dup3\n        /* \"PrivateEscrow.sol\":4459:4477  escrows[tradeHash] */\n      dup2\n      mstore\n      0x20\n      add\n      swap1\n      dup2\n      mstore\n      0x20\n      add\n      0x00\n      keccak256\n        /* \"PrivateEscrow.sol\":4459:4492  escrows[tradeHash].senderApproved */\n      0x00\n      add\n      0x01\n      swap1\n      sload\n      swap1\n      0x0100\n      exp\n      swap1\n      div\n      0xff\n      and\n        /* \"PrivateEscrow.sol\":4458:4492  !escrows[tradeHash].senderApproved */\n      iszero\n        /* \"PrivateEscrow.sol\":4433:4549  require(... */\n      tag_33\n      jumpi\n      mload(0x40)\n      0x08c379a000000000000000000000000000000000000000000000000000000000\n      dup2\n      mstore\n      0x04\n      add\n      dup1\n      dup1\n      0x20\n      add\n      dup3\n      dup2\n      sub\n      dup3\n      mstore\n      0x17\n      dup2\n      mstore\n      0x20\n      add\n      dup1\n      0x616c726561647920617070726f76656420627920796f75000000000000000000\n      dup2\n      mstore\n      pop\n      0x20\n      add\n      swap2\n      pop\n      pop\n      mload(0x40)\n      dup1\n      swap2\n      sub\n      swap1\n      revert\n    tag_33:\n        /* \"PrivateEscrow.sol\":4599:4603  true */\n      0x01\n        /* \"PrivateEscrow.sol\":4563:4570  escrows */\n      dup1\n        /* \"PrivateEscrow.sol\":4563:4581  escrows[tradeHash] */\n      0x00\n        /* \"PrivateEscrow.sol\":4571:4580  tradeHash */\n      dup4\n        /* \"PrivateEscrow.sol\":4563:4581  escrows[tradeHash] */\n      dup2\n      mstore\n      0x20\n      add\n      swap1\n      dup2\n      mstore\n      0x20\n      add\n      0x00\n      keccak256\n        /* \"PrivateEscrow.sol\":4563:4596  escrows[tradeHash].senderApproved */\n      0x00\n      add\n      0x01\n        /* \"PrivateEscrow.sol\":4563:4603  escrows[tradeHash].senderApproved = true */\n      0x0100\n      exp\n      dup2\n      sload\n      dup2\n      0xff\n      mul\n      not\n      and\n      swap1\n      dup4\n      iszero\n      iszero\n      mul\n      or\n      swap1\n      sstore\n      pop\n        /* \"PrivateEscrow.sol\":4393:4819  if (msg.sender == sender) {... */\n      jump(tag_34)\n    tag_32:\n        /* \"PrivateEscrow.sol\":4660:4667  escrows */\n      0x01\n        /* \"PrivateEscrow.sol\":4660:4678  escrows[tradeHash] */\n      0x00\n        /* \"PrivateEscrow.sol\":4668:4677  tradeHash */\n      dup3\n        /* \"PrivateEscrow.sol\":4660:4678  escrows[tradeHash] */\n      dup2\n      mstore\n      0x20\n      add\n      swap1\n      dup2\n      mstore\n      0x20\n      add\n      0x00\n      keccak256\n        /* \"PrivateEscrow.sol\":4660:4695  escrows[tradeHash].receiverApproved */\n      0x00\n      add\n      0x02\n      swap1\n      sload\n      swap1\n      0x0100\n      exp\n      swap1\n      div\n      0xff\n      and\n        /* \"PrivateEscrow.sol\":4659:4695  !escrows[tradeHash].receiverApproved */\n      iszero\n        /* \"PrivateEscrow.sol\":4634:4752  require(... */\n      tag_35\n      jumpi\n      mload(0x40)\n      0x08c379a000000000000000000000000000000000000000000000000000000000\n      dup2\n      mstore\n      0x04\n      add\n      dup1\n      dup1\n      0x20\n      add\n      dup3\n      dup2\n      sub\n      dup3\n      mstore\n      0x17\n      dup2\n      mstore\n      0x20\n      add\n      dup1\n      0x616c726561647920617070726f76656420627920796f75000000000000000000\n      dup2\n      mstore\n      pop\n      0x20\n      add\n      swap2\n      pop\n      pop\n      mload(0x40)\n      dup1\n      swap2\n      sub\n      swap1\n      revert\n    tag_35:\n        /* \"PrivateEscrow.sol\":4804:4808  true */\n      0x01\n        /* \"PrivateEscrow.sol\":4766:4773  escrows */\n      dup1\n        /* \"PrivateEscrow.sol\":4766:4784  escrows[tradeHash] */\n      0x00\n        /* \"PrivateEscrow.sol\":4774:4783  tradeHash */\n      dup4\n        /* \"PrivateEscrow.sol\":4766:4784  escrows[tradeHash] */\n      dup2\n      mstore\n      0x20\n      add\n      swap1\n      dup2\n      mstore\n      0x20\n      add\n      0x00\n      keccak256\n        /* \"PrivateEscrow.sol\":4766:4801  escrows[tradeHash].receiverApproved */\n      0x00\n      add\n      0x02\n        /* \"PrivateEscrow.sol\":4766:4808  escrows[tradeHash].receiverApproved = true */\n      0x0100\n      exp\n      dup2\n      sload\n      dup2\n      0xff\n      mul\n      not\n      and\n      swap1\n      dup4\n      iszero\n      iszero\n      mul\n      or\n      swap1\n      sstore\n      pop\n        /* \"PrivateEscrow.sol\":4393:4819  if (msg.sender == sender) {... */\n    tag_34:\n        /* \"PrivateEscrow.sol\":1308:1309  _ */\n      pop\n        /* \"PrivateEscrow.sol\":3875:4825  function approve(... */\n      pop\n      pop\n      pop\n      pop\n      pop\n      pop\n      jump\t// out\n        /* \"PrivateEscrow.sol\":2110:2612  function escrowExists(... */\n    tag_16:\n        /* \"PrivateEscrow.sol\":2466:2470  bool */\n      0x00\n        /* \"PrivateEscrow.sol\":2495:2512  bytes32 tradeHash */\n      dup1\n        /* \"PrivateEscrow.sol\":2515:2563  getEscrowHash(escrowID, sender, receiver, value) */\n      tag_37\n        /* \"PrivateEscrow.sol\":2529:2537  escrowID */\n      dup7\n        /* \"PrivateEscrow.sol\":2539:2545  sender */\n      dup7\n        /* \"PrivateEscrow.sol\":2547:2555  receiver */\n      dup7\n        /* \"PrivateEscrow.sol\":2557:2562  value */\n      dup7\n        /* \"PrivateEscrow.sol\":2515:2528  getEscrowHash */\n      tag_22\n        /* \"PrivateEscrow.sol\":2515:2563  getEscrowHash(escrowID, sender, receiver, value) */\n      jump\t// in\n    tag_37:\n        /* \"PrivateEscrow.sol\":2495:2563  bytes32 tradeHash = getEscrowHash(escrowID, sender, receiver, value) */\n      swap1\n      pop\n        /* \"PrivateEscrow.sol\":2580:2587  escrows */\n      0x01\n        /* \"PrivateEscrow.sol\":2580:2598  escrows[tradeHash] */\n      0x00\n        /* \"PrivateEscrow.sol\":2588:2597  tradeHash */\n      dup3\n        /* \"PrivateEscrow.sol\":2580:2598  escrows[tradeHash] */\n      dup2\n      mstore\n      0x20\n      add\n      swap1\n      dup2\n      mstore\n      0x20\n      add\n      0x00\n      keccak256\n        /* \"PrivateEscrow.sol\":2580:2605  escrows[tradeHash].exists */\n      0x00\n      add\n      0x00\n      swap1\n      sload\n      swap1\n      0x0100\n      exp\n      swap1\n      div\n      0xff\n      and\n        /* \"PrivateEscrow.sol\":2573:2605  return escrows[tradeHash].exists */\n      swap2\n      pop\n      pop\n        /* \"PrivateEscrow.sol\":2110:2612  function escrowExists(... */\n      swap5\n      swap4\n      pop\n      pop\n      pop\n      pop\n      jump\t// out\n        /* \"PrivateEscrow.sol\":5172:5815  function release(... */\n    tag_19:\n        /* \"PrivateEscrow.sol\":5372:5376  bool */\n      0x00\n        /* \"PrivateEscrow.sol\":5345:5351  sender */\n      dup4\n        /* \"PrivateEscrow.sol\":5353:5361  receiver */\n      dup4\n        /* \"PrivateEscrow.sol\":1250:1256  sender */\n      dup2\n        /* \"PrivateEscrow.sol\":1236:1256  msg.sender == sender */\n      0xffffffffffffffffffffffffffffffffffffffff\n      and\n        /* \"PrivateEscrow.sol\":1236:1246  msg.sender */\n      caller\n        /* \"PrivateEscrow.sol\":1236:1256  msg.sender == sender */\n      0xffffffffffffffffffffffffffffffffffffffff\n      and\n      eq\n        /* \"PrivateEscrow.sol\":1236:1282  msg.sender == sender || msg.sender == receiver */\n      dup1\n      tag_39\n      jumpi\n      pop\n        /* \"PrivateEscrow.sol\":1274:1282  receiver */\n      dup1\n        /* \"PrivateEscrow.sol\":1260:1282  msg.sender == receiver */\n      0xffffffffffffffffffffffffffffffffffffffff\n      and\n        /* \"PrivateEscrow.sol\":1260:1270  msg.sender */\n      caller\n        /* \"PrivateEscrow.sol\":1260:1282  msg.sender == receiver */\n      0xffffffffffffffffffffffffffffffffffffffff\n      and\n      eq\n        /* \"PrivateEscrow.sol\":1236:1282  msg.sender == sender || msg.sender == receiver */\n    tag_39:\n        /* \"PrivateEscrow.sol\":1228:1298  require(msg.sender == sender || msg.sender == receiver, \"not allowed\") */\n      tag_40\n      jumpi\n      mload(0x40)\n      0x08c379a000000000000000000000000000000000000000000000000000000000\n      dup2\n      mstore\n      0x04\n      add\n      dup1\n      dup1\n      0x20\n      add\n      dup3\n      dup2\n      sub\n      dup3\n      mstore\n      0x0b\n      dup2\n      mstore\n      0x20\n      add\n      dup1\n      0x6e6f7420616c6c6f776564000000000000000000000000000000000000000000\n      dup2\n      mstore\n      pop\n      0x20\n      add\n      swap2\n      pop\n      pop\n      mload(0x40)\n      dup1\n      swap2\n      sub\n      swap1\n      revert\n    tag_40:\n        /* \"PrivateEscrow.sol\":5388:5405  bytes32 tradeHash */\n      0x00\n        /* \"PrivateEscrow.sol\":5408:5456  getEscrowHash(escrowID, sender, receiver, value) */\n      tag_42\n        /* \"PrivateEscrow.sol\":5422:5430  escrowID */\n      dup9\n        /* \"PrivateEscrow.sol\":5432:5438  sender */\n      dup9\n        /* \"PrivateEscrow.sol\":5440:5448  receiver */\n      dup9\n        /* \"PrivateEscrow.sol\":5450:5455  value */\n      dup9\n        /* \"PrivateEscrow.sol\":5408:5421  getEscrowHash */\n      tag_22\n        /* \"PrivateEscrow.sol\":5408:5456  getEscrowHash(escrowID, sender, receiver, value) */\n      jump\t// in\n    tag_42:\n        /* \"PrivateEscrow.sol\":5388:5456  bytes32 tradeHash = getEscrowHash(escrowID, sender, receiver, value) */\n      swap1\n      pop\n        /* \"PrivateEscrow.sol\":5474:5481  escrows */\n      0x01\n        /* \"PrivateEscrow.sol\":5474:5492  escrows[tradeHash] */\n      0x00\n        /* \"PrivateEscrow.sol\":5482:5491  tradeHash */\n      dup3\n        /* \"PrivateEscrow.sol\":5474:5492  escrows[tradeHash] */\n      dup2\n      mstore\n      0x20\n      add\n      swap1\n      dup2\n      mstore\n      0x20\n      add\n      0x00\n      keccak256\n        /* \"PrivateEscrow.sol\":5474:5499  escrows[tradeHash].exists */\n      0x00\n      add\n      0x00\n      swap1\n      sload\n      swap1\n      0x0100\n      exp\n      swap1\n      div\n      0xff\n      and\n        /* \"PrivateEscrow.sol\":5466:5520  require(escrows[tradeHash].exists, \"escrow not found\") */\n      tag_43\n      jumpi\n      mload(0x40)\n      0x08c379a000000000000000000000000000000000000000000000000000000000\n      dup2\n      mstore\n      0x04\n      add\n      dup1\n      dup1\n      0x20\n      add\n      dup3\n      dup2\n      sub\n      dup3\n      mstore\n      0x10\n      dup2\n      mstore\n      0x20\n      add\n      dup1\n      0x657363726f77206e6f7420666f756e6400000000000000000000000000000000\n      dup2\n      mstore\n      pop\n      0x20\n      add\n      swap2\n      pop\n      pop\n      mload(0x40)\n      dup1\n      swap2\n      sub\n      swap1\n      revert\n    tag_43:\n        /* \"PrivateEscrow.sol\":5551:5558  escrows */\n      0x01\n        /* \"PrivateEscrow.sol\":5551:5569  escrows[tradeHash] */\n      0x00\n        /* \"PrivateEscrow.sol\":5559:5568  tradeHash */\n      dup3\n        /* \"PrivateEscrow.sol\":5551:5569  escrows[tradeHash] */\n      dup2\n      mstore\n      0x20\n      add\n      swap1\n      dup2\n      mstore\n      0x20\n      add\n      0x00\n      keccak256\n        /* \"PrivateEscrow.sol\":5551:5584  escrows[tradeHash].senderApproved */\n      0x00\n      add\n      0x01\n      swap1\n      sload\n      swap1\n      0x0100\n      exp\n      swap1\n      div\n      0xff\n      and\n        /* \"PrivateEscrow.sol\":5551:5639  escrows[tradeHash].senderApproved &&... */\n      dup1\n      iszero\n      tag_44\n      jumpi\n      pop\n        /* \"PrivateEscrow.sol\":5604:5611  escrows */\n      0x01\n        /* \"PrivateEscrow.sol\":5604:5622  escrows[tradeHash] */\n      0x00\n        /* \"PrivateEscrow.sol\":5612:5621  tradeHash */\n      dup3\n        /* \"PrivateEscrow.sol\":5604:5622  escrows[tradeHash] */\n      dup2\n      mstore\n      0x20\n      add\n      swap1\n      dup2\n      mstore\n      0x20\n      add\n      0x00\n      keccak256\n        /* \"PrivateEscrow.sol\":5604:5639  escrows[tradeHash].receiverApproved */\n      0x00\n      add\n      0x02\n      swap1\n      sload\n      swap1\n      0x0100\n      exp\n      swap1\n      div\n      0xff\n      and\n        /* \"PrivateEscrow.sol\":5551:5639  escrows[tradeHash].senderApproved &&... */\n    tag_44:\n        /* \"PrivateEscrow.sol\":5530:5677  require(... */\n      tag_45\n      jumpi\n      mload(0x40)\n      0x08c379a000000000000000000000000000000000000000000000000000000000\n      dup2\n      mstore\n      0x04\n      add\n      dup1\n      dup1\n      0x20\n      add\n      dup3\n      dup2\n      sub\n      dup3\n      mstore\n      0x0c\n      dup2\n      mstore\n      0x20\n      add\n      dup1\n      0x6e6f7420617070726f7665640000000000000000000000000000000000000000\n      dup2\n      mstore\n      pop\n      0x20\n      add\n      swap2\n      pop\n      pop\n      mload(0x40)\n      dup1\n      swap2\n      sub\n      swap1\n      revert\n    tag_45:\n        /* \"PrivateEscrow.sol\":5694:5701  escrows */\n      0x01\n        /* \"PrivateEscrow.sol\":5694:5712  escrows[tradeHash] */\n      0x00\n        /* \"PrivateEscrow.sol\":5702:5711  tradeHash */\n      dup3\n        /* \"PrivateEscrow.sol\":5694:5712  escrows[tradeHash] */\n      dup2\n      mstore\n      0x20\n      add\n      swap1\n      dup2\n      mstore\n      0x20\n      add\n      0x00\n      keccak256\n      0x00\n        /* \"PrivateEscrow.sol\":5687:5712  delete escrows[tradeHash] */\n      dup1\n      dup3\n      add\n      exp(0x0100, 0x00)\n      dup2\n      sload\n      swap1\n      0xff\n      mul\n      not\n      and\n      swap1\n      sstore\n      0x00\n      dup3\n      add\n      exp(0x0100, 0x01)\n      dup2\n      sload\n      swap1\n      0xff\n      mul\n      not\n      and\n      swap1\n      sstore\n      0x00\n      dup3\n      add\n      exp(0x0100, 0x02)\n      dup2\n      sload\n      swap1\n      0xff\n      mul\n      not\n      and\n      swap1\n      sstore\n      pop\n      pop\n        /* \"PrivateEscrow.sol\":5722:5730  receiver */\n      dup6\n        /* \"PrivateEscrow.sol\":5722:5739  receiver.transfer */\n      0xffffffffffffffffffffffffffffffffffffffff\n      and\n        /* \"PrivateEscrow.sol\":5722:5746  receiver.transfer(value) */\n      0x08fc\n        /* \"PrivateEscrow.sol\":5740:5745  value */\n      dup7\n        /* \"PrivateEscrow.sol\":5722:5746  receiver.transfer(value) */\n      swap1\n      dup2\n      iszero\n      mul\n      swap1\n      mload(0x40)\n      0x00\n      mload(0x40)\n      dup1\n      dup4\n      sub\n      dup2\n      dup6\n      dup9\n      dup9\n      call\n      swap4\n      pop\n      pop\n      pop\n      pop\n      iszero\n        /* \"--CODEGEN--\":8:17   */\n      dup1\n        /* \"--CODEGEN--\":5:7   */\n      iszero\n      tag_47\n      jumpi\n        /* \"--CODEGEN--\":45:61   */\n      returndatasize\n        /* \"--CODEGEN--\":42:43   */\n      0x00\n        /* \"--CODEGEN--\":39:40   */\n      dup1\n        /* \"--CODEGEN--\":24:62   */\n      returndatacopy\n        /* \"--CODEGEN--\":77:93   */\n      returndatasize\n        /* \"--CODEGEN--\":74:75   */\n      0x00\n        /* \"--CODEGEN--\":67:94   */\n      revert\n        /* \"--CODEGEN--\":5:7   */\n    tag_47:\n        /* \"PrivateEscrow.sol\":5722:5746  receiver.transfer(value) */\n      pop\n        /* \"PrivateEscrow.sol\":5763:5767  true */\n      0x01\n        /* \"PrivateEscrow.sol\":5756:5767  return true */\n      swap4\n      pop\n      pop\n        /* \"PrivateEscrow.sol\":5172:5815  function release(... */\n      pop\n      pop\n      swap5\n      swap4\n      pop\n      pop\n      pop\n      pop\n      jump\t// out\n        /* \"PrivateEscrow.sol\":1701:2104  function getEscrowHash(... */\n    tag_22:\n        /* \"PrivateEscrow.sol\":1930:1942  bytes32 hash */\n      0x00\n        /* \"PrivateEscrow.sol\":1967:1984  bytes32 tradeHash */\n      dup1\n        /* \"PrivateEscrow.sol\":2027:2035  escrowID */\n      dup6\n        /* \"PrivateEscrow.sol\":2037:2043  sender */\n      dup6\n        /* \"PrivateEscrow.sol\":2045:2053  receiver */\n      dup6\n        /* \"PrivateEscrow.sol\":2055:2060  value */\n      dup6\n        /* \"PrivateEscrow.sol\":2010:2061  abi.encodePacked(escrowID, sender, receiver, value) */\n      add(0x20, mload(0x40))\n      dup1\n      dup6\n      not(0xffffffffffffffffffffffffffffffff)\n      and\n      not(0xffffffffffffffffffffffffffffffff)\n      and\n      dup2\n      mstore\n      0x10\n      add\n      dup5\n      0xffffffffffffffffffffffffffffffffffffffff\n      and\n      0xffffffffffffffffffffffffffffffffffffffff\n      and\n      0x60\n      shl\n      dup2\n      mstore\n      0x14\n      add\n      dup4\n      0xffffffffffffffffffffffffffffffffffffffff\n      and\n      0xffffffffffffffffffffffffffffffffffffffff\n      and\n      0x60\n      shl\n      dup2\n      mstore\n      0x14\n      add\n      dup3\n      dup2\n      mstore\n      0x20\n      add\n      swap5\n      pop\n      pop\n      pop\n      pop\n      pop\n      mload(0x40)\n        /* \"--CODEGEN--\":49:53   */\n      0x20\n        /* \"--CODEGEN--\":39:46   */\n      dup2\n        /* \"--CODEGEN--\":30:37   */\n      dup4\n        /* \"--CODEGEN--\":26:47   */\n      sub\n        /* \"--CODEGEN--\":22:54   */\n      sub\n        /* \"--CODEGEN--\":13:20   */\n      dup2\n        /* \"--CODEGEN--\":6:55   */\n      mstore\n        /* \"PrivateEscrow.sol\":2010:2061  abi.encodePacked(escrowID, sender, receiver, value) */\n      swap1\n      0x40\n      mstore\n        /* \"PrivateEscrow.sol\":1987:2071  keccak256(... */\n      dup1\n      mload\n      swap1\n      0x20\n      add\n      keccak256\n        /* \"PrivateEscrow.sol\":1967:2071  bytes32 tradeHash = keccak256(... */\n      swap1\n      pop\n        /* \"PrivateEscrow.sol\":2088:2097  tradeHash */\n      dup1\n        /* \"PrivateEscrow.sol\":2081:2097  return tradeHash */\n      swap2\n      pop\n      pop\n        /* \"PrivateEscrow.sol\":1701:2104  function getEscrowHash(... */\n      swap5\n      swap4\n      pop\n      pop\n      pop\n      pop\n      jump\t// out\n\n    auxdata: 0xa26469706673582212203ec64360b9f1cb4b9e1e107cb9afa8b13eee58ca9c95ab84c535a73b82db828764736f6c63430006010033\n}\n","bytecode":{"linkReferences":{},"object":"608060405234801561001057600080fd5b50336000806101000a81548173ffffffffffffffffffffffffffffffffffffffff021916908373ffffffffffffffffffffffffffffffffffffffff160217905550610be9806100606000396000f3fe60806040526004361061003f5760003560e01c806314853e9e146100445780636f6b360f146100af578063949001dc14610147578063e95aa894146101f7575b600080fd5b6100ad6004803603606081101561005a57600080fd5b8101908080356fffffffffffffffffffffffffffffffff19169060200190929190803573ffffffffffffffffffffffffffffffffffffffff1690602001909291908035906020019092919050505061029a565b005b3480156100bb57600080fd5b50610145600480360360808110156100d257600080fd5b8101908080356fffffffffffffffffffffffffffffffff19169060200190929190803573ffffffffffffffffffffffffffffffffffffffff169060200190929190803573ffffffffffffffffffffffffffffffffffffffff16906020019092919080359060200190929190505050610468565b005b34801561015357600080fd5b506101dd6004803603608081101561016a57600080fd5b8101908080356fffffffffffffffffffffffffffffffff19169060200190929190803573ffffffffffffffffffffffffffffffffffffffff169060200190929190803573ffffffffffffffffffffffffffffffffffffffff169060200190929190803590602001909291905050506107b4565b604051808215151515815260200191505060405180910390f35b6102806004803603608081101561020d57600080fd5b8101908080356fffffffffffffffffffffffffffffffff19169060200190929190803573ffffffffffffffffffffffffffffffffffffffff169060200190929190803573ffffffffffffffffffffffffffffffffffffffff169060200190929190803590602001909291905050506107f4565b604051808215151515815260200191505060405180910390f35b600033905060006102ad85838686610adf565b90506001600082815260200190815260200160002060000160009054906101000a900460ff1615610346576040517f08c379a00000000000000000000000000000000000000000000000000000000081526004018080602001828103825260158152602001807f636f756c64206e6f742066696e6420657363726f77000000000000000000000081525060200191505060405180910390fd5b82341480156103555750600034115b6103c7576040517f08c379a000000000000000000000000000000000000000000000000000000000815260040180806020018281038252600f8152602001807f696e636f72726563742076616c7565000000000000000000000000000000000081525060200191505060405180910390fd5b6040518060600160405280600115158152602001600015158152602001600015158152506001600083815260200190815260200160002060008201518160000160006101000a81548160ff02191690831515021790555060208201518160000160016101000a81548160ff02191690831515021790555060408201518160000160026101000a81548160ff0219169083151502179055509050505050505050565b82828173ffffffffffffffffffffffffffffffffffffffff163373ffffffffffffffffffffffffffffffffffffffff1614806104cf57508073ffffffffffffffffffffffffffffffffffffffff163373ffffffffffffffffffffffffffffffffffffffff16145b610541576040517f08c379a000000000000000000000000000000000000000000000000000000000815260040180806020018281038252600b8152602001807f6e6f7420616c6c6f77656400000000000000000000000000000000000000000081525060200191505060405180910390fd5b600061054f87878787610adf565b90506001600082815260200190815260200160002060000160009054906101000a900460ff166105e7576040517f08c379a00000000000000000000000000000000000000000000000000000000081526004018080602001828103825260108152602001807f657363726f77206e6f7420666f756e640000000000000000000000000000000081525060200191505060405180910390fd5b8573ffffffffffffffffffffffffffffffffffffffff163373ffffffffffffffffffffffffffffffffffffffff1614156106e5576001600082815260200190815260200160002060000160019054906101000a900460ff16156106b2576040517f08c379a00000000000000000000000000000000000000000000000000000000081526004018080602001828103825260178152602001807f616c726561647920617070726f76656420627920796f7500000000000000000081525060200191505060405180910390fd5b600180600083815260200190815260200160002060000160016101000a81548160ff0219169083151502179055506107ab565b6001600082815260200190815260200160002060000160029054906101000a900460ff161561077c576040517f08c379a00000000000000000000000000000000000000000000000000000000081526004018080602001828103825260178152602001807f616c726561647920617070726f76656420627920796f7500000000000000000081525060200191505060405180910390fd5b600180600083815260200190815260200160002060000160026101000a81548160ff0219169083151502179055505b50505050505050565b6000806107c386868686610adf565b90506001600082815260200190815260200160002060000160009054906101000a900460ff16915050949350505050565b600083838173ffffffffffffffffffffffffffffffffffffffff163373ffffffffffffffffffffffffffffffffffffffff16148061085d57508073ffffffffffffffffffffffffffffffffffffffff163373ffffffffffffffffffffffffffffffffffffffff16145b6108cf576040517f08c379a000000000000000000000000000000000000000000000000000000000815260040180806020018281038252600b8152602001807f6e6f7420616c6c6f77656400000000000000000000000000000000000000000081525060200191505060405180910390fd5b60006108dd88888888610adf565b90506001600082815260200190815260200160002060000160009054906101000a900460ff16610975576040517f08c379a00000000000000000000000000000000000000000000000000000000081526004018080602001828103825260108152602001807f657363726f77206e6f7420666f756e640000000000000000000000000000000081525060200191505060405180910390fd5b6001600082815260200190815260200160002060000160019054906101000a900460ff1680156109c557506001600082815260200190815260200160002060000160029054906101000a900460ff165b610a37576040517f08c379a000000000000000000000000000000000000000000000000000000000815260040180806020018281038252600c8152602001807f6e6f7420617070726f766564000000000000000000000000000000000000000081525060200191505060405180910390fd5b60016000828152602001908152602001600020600080820160006101000a81549060ff02191690556000820160016101000a81549060ff02191690556000820160026101000a81549060ff021916905550508573ffffffffffffffffffffffffffffffffffffffff166108fc869081150290604051600060405180830381858888f19350505050158015610acf573d6000803e3d6000fd5b5060019350505050949350505050565b6000808585858560405160200180856fffffffffffffffffffffffffffffffff19166fffffffffffffffffffffffffffffffff191681526010018473ffffffffffffffffffffffffffffffffffffffff1673ffffffffffffffffffffffffffffffffffffffff1660601b81526014018373ffffffffffffffffffffffffffffffffffffffff1673ffffffffffffffffffffffffffffffffffffffff1660601b81526014018281526020019450505050506040516020818303038152906040528051906020012090508091505094935050505056fea26469706673582212203ec64360b9f1cb4b9e1e107cb9afa8b13eee58ca9c95ab84c535a73b82db828764736f6c63430006010033","opcodes":"PUSH1 0x80 PUSH1 0x40 MSTORE CALLVALUE DUP1 ISZERO PUSH2 0x10 JUMPI PUSH1 0x0 DUP1 REVERT JUMPDEST POP CALLER PUSH1 0x0 DUP1 PUSH2 0x100 EXP DUP2 SLOAD DUP2 PUSH20 0xFFFFFFFFFFFFFFFFFFFFFFFFFFFFFFFFFFFFFFFF MUL NOT AND SWAP1 DUP4 PUSH20 0xFFFFFFFFFFFFFFFFFFFFFFFFFFFFFFFFFFFFFFFF AND MUL OR SWAP1 SSTORE POP PUSH2 0xBE9 DUP1 PUSH2 0x60 PUSH1 0x0 CODECOPY PUSH1 0x0 RETURN INVALID PUSH1 0x80 PUSH1 0x40 MSTORE PUSH1 0x4 CALLDATASIZE LT PUSH2 0x3F JUMPI PUSH1 0x0 CALLDATALOAD PUSH1 0xE0 SHR DUP1 PUSH4 0x14853E9E EQ PUSH2 0x44 JUMPI DUP1 PUSH4 0x6F6B360F EQ PUSH2 0xAF JUMPI DUP1 PUSH4 0x949001DC EQ PUSH2 0x147 JUMPI DUP1 PUSH4 0xE95AA894 EQ PUSH2 0x1F7 JUMPI JUMPDEST PUSH1 0x0 DUP1 REVERT JUMPDEST PUSH2 0xAD PUSH1 0x4 DUP1 CALLDATASIZE SUB PUSH1 0x60 DUP2 LT ISZERO PUSH2 0x5A JUMPI PUSH1 0x0 DUP1 REVERT JUMPDEST DUP2 ADD SWAP1 DUP1 DUP1 CALLDATALOAD PUSH16 0xFFFFFFFFFFFFFFFFFFFFFFFFFFFFFFFF NOT AND SWAP1 PUSH1 0x20 ADD SWAP1 SWAP3 SWAP2 SWAP1 DUP1 CALLDATALOAD PUSH20 0xFFFFFFFFFFFFFFFFFFFFFFFFFFFFFFFFFFFFFFFF AND SWAP1 PUSH1 0x20 ADD SWAP1 SWAP3 SWAP2 SWAP1 DUP1 CALLDATALOAD SWAP1 PUSH1 0x20 ADD SWAP1 SWAP3 SWAP2 SWAP1 POP POP POP PUSH2 0x29A JUMP JUMPDEST STOP JUMPDEST CALLVALUE DUP1 ISZERO PUSH2 0xBB JUMPI PUSH1 0x0 DUP1 REVERT JUMPDEST POP PUSH2 0x145 PUSH1 0x4 DUP1 CALLDATASIZE SUB PUSH1 0x80 DUP2 LT ISZERO PUSH2 0xD2 JUMPI PUSH1 0x0 DUP1 REVERT JUMPDEST DUP2 ADD SWAP1 DUP1 DUP1 CALLDATALOAD PUSH16 0xFFFFFFFFFFFFFFFFFFFFFFFFFFFFFFFF NOT AND SWAP1 PUSH1 0x20 ADD SWAP1 SWAP3 SWAP2 SWAP1 DUP1 CALLDATALOAD PUSH20 0xFFFFFFFFFFFFFFFFFFFFFFFFFFFFFFFFFFFFFFFF AND SWAP1 PUSH1 0x20 ADD SWAP1 SWAP3 SWAP2 SWAP1 DUP1 CALLDATALOAD PUSH20 0xFFFFFFFFFFFFFFFFFFFFFFFFFFFFFFFFFFFFFFFF AND SWAP1 PUSH1 0x20 ADD SWAP1 SWAP3 SWAP2 SWAP1 DUP1 CALLDATALOAD SWAP1 PUSH1 0x20 ADD SWAP1 SWAP3 SWAP2 SWAP1 POP POP POP PUSH2 0x468 JUMP JUMPDEST STOP JUMPDEST CALLVALUE DUP1 ISZERO PUSH2 0x153 JUMPI PUSH1 0x0 DUP1 REVERT JUMPDEST POP PUSH2 0x1DD PUSH1 0x4 DUP1 CALLDATASIZE SUB PUSH1 0x80 DUP2 LT ISZERO PUSH2 0x16A JUMPI PUSH1 0x0 DUP1 REVERT JUMPDEST DUP2 ADD SWAP1 DUP1 DUP1 CALLDATALOAD PUSH16 0xFFFFFFFFFFFFFFFFFFFFFFFFFFFFFFFF NOT AND SWAP1 PUSH1 0x20 ADD SWAP1 SWAP3 SWAP2 SWAP1 DUP1 CALLDATALOAD PUSH20 0xFFFFFFFFFFFFFFFFFFFFFFFFFFFFFFFFFFFFFFFF AND SWAP1 PUSH1 0x20 ADD SWAP1 SWAP3 SWAP2 SWAP1 DUP1 CALLDATALOAD PUSH20 0xFFFFFFFFFFFFFFFFFFFFFFFFFFFFFFFFFFFFFFFF AND SWAP1 PUSH1 0x20 ADD SWAP1 SWAP3 SWAP2 SWAP1 DUP1 CALLDATALOAD SWAP1 PUSH1 0x20 ADD SWAP1 SWAP3 SWAP2 SWAP1 POP POP POP PUSH2 0x7B4 JUMP JUMPDEST PUSH1 0x40 MLOAD DUP1 DUP3 ISZERO ISZERO ISZERO ISZERO DUP2 MSTORE PUSH1 0x20 ADD SWAP2 POP POP PUSH1 0x40 MLOAD DUP1 SWAP2 SUB SWAP1 RETURN JUMPDEST PUSH2 0x280 PUSH1 0x4 DUP1 CALLDATASIZE SUB PUSH1 0x80 DUP2 LT ISZERO PUSH2 0x20D JUMPI PUSH1 0x0 DUP1 REVERT JUMPDEST DUP2 ADD SWAP1 DUP1 DUP1 CALLDATALOAD PUSH16 0xFFFFFFFFFFFFFFFFFFFFFFFFFFFFFFFF NOT AND SWAP1 PUSH1 0x20 ADD SWAP1 SWAP3 SWAP2 SWAP1 DUP1 CALLDATALOAD PUSH20 0xFFFFFFFFFFFFFFFFFFFFFFFFFFFFFFFFFFFFFFFF AND SWAP1 PUSH1 0x20 ADD SWAP1 SWAP3 SWAP2 SWAP1 DUP1 CALLDATALOAD PUSH20 0xFFFFFFFFFFFFFFFFFFFFFFFFFFFFFFFFFFFFFFFF AND SWAP1 PUSH1 0x20 ADD SWAP1 SWAP3 SWAP2 SWAP1 DUP1 CALLDATALOAD SWAP1 PUSH1 0x20 ADD SWAP1 SWAP3 SWAP2 SWAP1 POP POP POP PUSH2 0x7F4 JUMP JUMPDEST PUSH1 0x40 MLOAD DUP1 DUP3 ISZERO ISZERO ISZERO ISZERO DUP2 MSTORE PUSH1 0x20 ADD SWAP2 POP POP PUSH1 0x40 MLOAD DUP1 SWAP2 SUB SWAP1 RETURN JUMPDEST PUSH1 0x0 CALLER SWAP1 POP PUSH1 0x0 PUSH2 0x2AD DUP6 DUP4 DUP7 DUP7 PUSH2 0xADF JUMP JUMPDEST SWAP1 POP PUSH1 0x1 PUSH1 0x0 DUP3 DUP2 MSTORE PUSH1 0x20 ADD SWAP1 DUP2 MSTORE PUSH1 0x20 ADD PUSH1 0x0 KECCAK256 PUSH1 0x0 ADD PUSH1 0x0 SWAP1 SLOAD SWAP1 PUSH2 0x100 EXP SWAP1 DIV PUSH1 0xFF AND ISZERO PUSH2 0x346 JUMPI PUSH1 0x40 MLOAD PUSH32 0x8C379A000000000000000000000000000000000000000000000000000000000 DUP2 MSTORE PUSH1 0x4 ADD DUP1 DUP1 PUSH1 0x20 ADD DUP3 DUP2 SUB DUP3 MSTORE PUSH1 0x15 DUP2 MSTORE PUSH1 0x20 ADD DUP1 PUSH32 0x636F756C64206E6F742066696E6420657363726F770000000000000000000000 DUP2 MSTORE POP PUSH1 0x20 ADD SWAP2 POP POP PUSH1 0x40 MLOAD DUP1 SWAP2 SUB SWAP1 REVERT JUMPDEST DUP3 CALLVALUE EQ DUP1 ISZERO PUSH2 0x355 JUMPI POP PUSH1 0x0 CALLVALUE GT JUMPDEST PUSH2 0x3C7 JUMPI PUSH1 0x40 MLOAD PUSH32 0x8C379A000000000000000000000000000000000000000000000000000000000 DUP2 MSTORE PUSH1 0x4 ADD DUP1 DUP1 PUSH1 0x20 ADD DUP3 DUP2 SUB DUP3 MSTORE PUSH1 0xF DUP2 MSTORE PUSH1 0x20 ADD DUP1 PUSH32 0x696E636F72726563742076616C75650000000000000000000000000000000000 DUP2 MSTORE POP PUSH1 0x20 ADD SWAP2 POP POP PUSH1 0x40 MLOAD DUP1 SWAP2 SUB SWAP1 REVERT JUMPDEST PUSH1 0x40 MLOAD DUP1 PUSH1 0x60 ADD PUSH1 0x40 MSTORE DUP1 PUSH1 0x1 ISZERO ISZERO DUP2 MSTORE PUSH1 0x20 ADD PUSH1 0x0 ISZERO ISZERO DUP2 MSTORE PUSH1 0x20 ADD PUSH1 0x0 ISZERO ISZERO DUP2 MSTORE POP PUSH1 0x1 PUSH1 0x0 DUP4 DUP2 MSTORE PUSH1 0x20 ADD SWAP1 DUP2 MSTORE PUSH1 0x20 ADD PUSH1 0x0 KECCAK256 PUSH1 0x0 DUP3 ADD MLOAD DUP2 PUSH1 0x0 ADD PUSH1 0x0 PUSH2 0x100 EXP DUP2 SLOAD DUP2 PUSH1 0xFF MUL NOT AND SWAP1 DUP4 ISZERO ISZERO MUL OR SWAP1 SSTORE POP PUSH1 0x20 DUP3 ADD MLOAD DUP2 PUSH1 0x0 ADD PUSH1 0x1 PUSH2 0x100 EXP DUP2 SLOAD DUP2 PUSH1 0xFF MUL NOT AND SWAP1 DUP4 ISZERO ISZERO MUL OR SWAP1 SSTORE POP PUSH1 0x40 DUP3 ADD MLOAD DUP2 PUSH1 0x0 ADD PUSH1 0x2 PUSH2 0x100 EXP DUP2 SLOAD DUP2 PUSH1 0xFF MUL NOT AND SWAP1 DUP4 ISZERO ISZERO MUL OR SWAP1 SSTORE POP SWAP1 POP POP POP POP POP POP POP JUMP JUMPDEST DUP3 DUP3 DUP2 PUSH20 0xFFFFFFFFFFFFFFFFFFFFFFFFFFFFFFFFFFFFFFFF AND CALLER PUSH20 0xFFFFFFFFFFFFFFFFFFFFFFFFFFFFFFFFFFFFFFFF AND EQ DUP1 PUSH2 0x4CF JUMPI POP DUP1 PUSH20 0xFFFFFFFFFFFFFFFFFFFFFFFFFFFFFFFFFFFFFFFF AND CALLER PUSH20 0xFFFFFFFFFFFFFFFFFFFFFFFFFFFFFFFFFFFFFFFF AND EQ JUMPDEST PUSH2 0x541 JUMPI PUSH1 0x40 MLOAD PUSH32 0x8C379A000000000000000000000000000000000000000000000000000000000 DUP2 MSTORE PUSH1 0x4 ADD DUP1 DUP1 PUSH1 0x20 ADD DUP3 DUP2 SUB DUP3 MSTORE PUSH1 0xB DUP2 MSTORE PUSH1 0x20 ADD DUP1 PUSH32 0x6E6F7420616C6C6F776564000000000000000000000000000000000000000000 DUP2 MSTORE POP PUSH1 0x20 ADD SWAP2 POP POP PUSH1 0x40 MLOAD DUP1 SWAP2 SUB SWAP1 REVERT JUMPDEST PUSH1 0x0 PUSH2 0x54F DUP8 DUP8 DUP8 DUP8 PUSH2 0xADF JUMP JUMPDEST SWAP1 POP PUSH1 0x1 PUSH1 0x0 DUP3 DUP2 MSTORE PUSH1 0x20 ADD SWAP1 DUP2 MSTORE PUSH1 0x20 ADD PUSH1 0x0 KECCAK256 PUSH1 0x0 ADD PUSH1 0x0 SWAP1 SLOAD SWAP1 PUSH2 0x100 EXP SWAP1 DIV PUSH1 0xFF AND PUSH2 0x5E7 JUMPI PUSH1 0x40 MLOAD PUSH32 0x8C379A000000000000000000000000000000000000000000000000000000000 DUP2 MSTORE PUSH1 0x4 ADD DUP1 DUP1 PUSH1 0x20 ADD DUP3 DUP2 SUB DUP3 MSTORE PUSH1 0x10 DUP2 MSTORE PUSH1 0x20 ADD DUP1 PUSH32 0x657363726F77206E6F7420666F756E6400000000000000000000000000000000 DUP2 MSTORE POP PUSH1 0x20 ADD SWAP2 POP POP PUSH1 0x40 MLOAD DUP1 SWAP2 SUB SWAP1 REVERT JUMPDEST DUP6 PUSH20 0xFFFFFFFFFFFFFFFFFFFFFFFFFFFFFFFFFFFFFFFF AND CALLER PUSH20 0xFFFFFFFFFFFFFFFFFFFFFFFFFFFFFFFFFFFFFFFF AND EQ ISZERO PUSH2 0x6E5 JUMPI PUSH1 0x1 PUSH1 0x0 DUP3 DUP2 MSTORE PUSH1 0x20 ADD SWAP1 DUP2 MSTORE PUSH1 0x20 ADD PUSH1 0x0 KECCAK256 PUSH1 0x0 ADD PUSH1 0x1 SWAP1 SLOAD SWAP1 PUSH2 0x100 EXP SWAP1 DIV PUSH1 0xFF AND ISZERO PUSH2 0x6B2 JUMPI PUSH1 0x40 MLOAD PUSH32 0x8C379A000000000000000000000000000000000000000000000000000000000 DUP2 MSTORE PUSH1 0x4 ADD DUP1 DUP1 PUSH1 0x20 ADD DUP3 DUP2 SUB DUP3 MSTORE PUSH1 0x17 DUP2 MSTORE PUSH1 0x20 ADD DUP1 PUSH32 0x616C726561647920617070726F76656420627920796F75000000000000000000 DUP2 MSTORE POP PUSH1 0x20 ADD SWAP2 POP POP PUSH1 0x40 MLOAD DUP1 SWAP2 SUB SWAP1 REVERT JUMPDEST PUSH1 0x1 DUP1 PUSH1 0x0 DUP4 DUP2 MSTORE PUSH1 0x20 ADD SWAP1 DUP2 MSTORE PUSH1 0x20 ADD PUSH1 0x0 KECCAK256 PUSH1 0x0 ADD PUSH1 0x1 PUSH2 0x100 EXP DUP2 SLOAD DUP2 PUSH1 0xFF MUL NOT AND SWAP1 DUP4 ISZERO ISZERO MUL OR SWAP1 SSTORE POP PUSH2 0x7AB JUMP JUMPDEST PUSH1 0x1 PUSH1 0x0 DUP3 DUP2 MSTORE PUSH1 0x20 ADD SWAP1 DUP2 MSTORE PUSH1 0x20 ADD PUSH1 0x0 KECCAK256 PUSH1 0x0 ADD PUSH1 0x2 SWAP1 SLOAD SWAP1 PUSH2 0x100 EXP SWAP1 DIV PUSH1 0xFF AND ISZERO PUSH2 0x77C JUMPI PUSH1 0x40 MLOAD PUSH32 0x8C379A000000000000000000000000000000000000000000000000000000000 DUP2 MSTORE PUSH1 0x4 ADD DUP1 DUP1 PUSH1 0x20 ADD DUP3 DUP2 SUB DUP3 MSTORE PUSH1 0x17 DUP2 MSTORE PUSH1 0x20 ADD DUP1 PUSH32 0x616C726561647920617070726F76656420627920796F75000000000000000000 DUP2 MSTORE POP PUSH1 0x20 ADD SWAP2 POP POP PUSH1 0x40 MLOAD DUP1 SWAP2 SUB SWAP1 REVERT JUMPDEST PUSH1 0x1 DUP1 PUSH1 0x0 DUP4 DUP2 MSTORE PUSH1 0x20 ADD SWAP1 DUP2 MSTORE PUSH1 0x20 ADD PUSH1 0x0 KECCAK256 PUSH1 0x0 ADD PUSH1 0x2 PUSH2 0x100 EXP DUP2 SLOAD DUP2 PUSH1 0xFF MUL NOT AND SWAP1 DUP4 ISZERO ISZERO MUL OR SWAP1 SSTORE POP JUMPDEST POP POP POP POP POP POP POP JUMP JUMPDEST PUSH1 0x0 DUP1 PUSH2 0x7C3 DUP7 DUP7 DUP7 DUP7 PUSH2 0xADF JUMP JUMPDEST SWAP1 POP PUSH1 0x1 PUSH1 0x0 DUP3 DUP2 MSTORE PUSH1 0x20 ADD SWAP1 DUP2 MSTORE PUSH1 0x20 ADD PUSH1 0x0 KECCAK256 PUSH1 0x0 ADD PUSH1 0x0 SWAP1 SLOAD SWAP1 PUSH2 0x100 EXP SWAP1 DIV PUSH1 0xFF AND SWAP2 POP POP SWAP5 SWAP4 POP POP POP POP JUMP JUMPDEST PUSH1 0x0 DUP4 DUP4 DUP2 PUSH20 0xFFFFFFFFFFFFFFFFFFFFFFFFFFFFFFFFFFFFFFFF AND CALLER PUSH20 0xFFFFFFFFFFFFFFFFFFFFFFFFFFFFFFFFFFFFFFFF AND EQ DUP1 PUSH2 0x85D JUMPI POP DUP1 PUSH20 0xFFFFFFFFFFFFFFFFFFFFFFFFFFFFFFFFFFFFFFFF AND CALLER PUSH20 0xFFFFFFFFFFFFFFFFFFFFFFFFFFFFFFFFFFFFFFFF AND EQ JUMPDEST PUSH2 0x8CF JUMPI PUSH1 0x40 MLOAD PUSH32 0x8C379A000000000000000000000000000000000000000000000000000000000 DUP2 MSTORE PUSH1 0x4 ADD DUP1 DUP1 PUSH1 0x20 ADD DUP3 DUP2 SUB DUP3 MSTORE PUSH1 0xB DUP2 MSTORE PUSH1 0x20 ADD DUP1 PUSH32 0x6E6F7420616C6C6F776564000000000000000000000000000000000000000000 DUP2 MSTORE POP PUSH1 0x20 ADD SWAP2 POP POP PUSH1 0x40 MLOAD DUP1 SWAP2 SUB SWAP1 REVERT JUMPDEST PUSH1 0x0 PUSH2 0x8DD DUP9 DUP9 DUP9 DUP9 PUSH2 0xADF JUMP JUMPDEST SWAP1 POP PUSH1 0x1 PUSH1 0x0 DUP3 DUP2 MSTORE PUSH1 0x20 ADD SWAP1 DUP2 MSTORE PUSH1 0x20 ADD PUSH1 0x0 KECCAK256 PUSH1 0x0 ADD PUSH1 0x0 SWAP1 SLOAD SWAP1 PUSH2 0x100 EXP SWAP1 DIV PUSH1 0xFF AND PUSH2 0x975 JUMPI PUSH1 0x40 MLOAD PUSH32 0x8C379A000000000000000000000000000000000000000000000000000000000 DUP2 MSTORE PUSH1 0x4 ADD DUP1 DUP1 PUSH1 0x20 ADD DUP3 DUP2 SUB DUP3 MSTORE PUSH1 0x10 DUP2 MSTORE PUSH1 0x20 ADD DUP1 PUSH32 0x657363726F77206E6F7420666F756E6400000000000000000000000000000000 DUP2 MSTORE POP PUSH1 0x20 ADD SWAP2 POP POP PUSH1 0x40 MLOAD DUP1 SWAP2 SUB SWAP1 REVERT JUMPDEST PUSH1 0x1 PUSH1 0x0 DUP3 DUP2 MSTORE PUSH1 0x20 ADD SWAP1 DUP2 MSTORE PUSH1 0x20 ADD PUSH1 0x0 KECCAK256 PUSH1 0x0 ADD PUSH1 0x1 SWAP1 SLOAD SWAP1 PUSH2 0x100 EXP SWAP1 DIV PUSH1 0xFF AND DUP1 ISZERO PUSH2 0x9C5 JUMPI POP PUSH1 0x1 PUSH1 0x0 DUP3 DUP2 MSTORE PUSH1 0x20 ADD SWAP1 DUP2 MSTORE PUSH1 0x20 ADD PUSH1 0x0 KECCAK256 PUSH1 0x0 ADD PUSH1 0x2 SWAP1 SLOAD SWAP1 PUSH2 0x100 EXP SWAP1 DIV PUSH1 0xFF AND JUMPDEST PUSH2 0xA37 JUMPI PUSH1 0x40 MLOAD PUSH32 0x8C379A000000000000000000000000000000000000000000000000000000000 DUP2 MSTORE PUSH1 0x4 ADD DUP1 DUP1 PUSH1 0x20 ADD DUP3 DUP2 SUB DUP3 MSTORE PUSH1 0xC DUP2 MSTORE PUSH1 0x20 ADD DUP1 PUSH32 0x6E6F7420617070726F7665640000000000000000000000000000000000000000 DUP2 MSTORE POP PUSH1 0x20 ADD SWAP2 POP POP PUSH1 0x40 MLOAD DUP1 SWAP2 SUB SWAP1 REVERT JUMPDEST PUSH1 0x1 PUSH1 0x0 DUP3 DUP2 MSTORE PUSH1 0x20 ADD SWAP1 DUP2 MSTORE PUSH1 0x20 ADD PUSH1 0x0 KECCAK256 PUSH1 0x0 DUP1 DUP3 ADD PUSH1 0x0 PUSH2 0x100 EXP DUP2 SLOAD SWAP1 PUSH1 0xFF MUL NOT AND SWAP1 SSTORE PUSH1 0x0 DUP3 ADD PUSH1 0x1 PUSH2 0x100 EXP DUP2 SLOAD SWAP1 PUSH1 0xFF MUL NOT AND SWAP1 SSTORE PUSH1 0x0 DUP3 ADD PUSH1 0x2 PUSH2 0x100 EXP DUP2 SLOAD SWAP1 PUSH1 0xFF MUL NOT AND SWAP1 SSTORE POP POP DUP6 PUSH20 0xFFFFFFFFFFFFFFFFFFFFFFFFFFFFFFFFFFFFFFFF AND PUSH2 0x8FC DUP7 SWAP1 DUP2 ISZERO MUL SWAP1 PUSH1 0x40 MLOAD PUSH1 0x0 PUSH1 0x40 MLOAD DUP1 DUP4 SUB DUP2 DUP6 DUP9 DUP9 CALL SWAP4 POP POP POP POP ISZERO DUP1 ISZERO PUSH2 0xACF JUMPI RETURNDATASIZE PUSH1 0x0 DUP1 RETURNDATACOPY RETURNDATASIZE PUSH1 0x0 REVERT JUMPDEST POP PUSH1 0x1 SWAP4 POP POP POP POP SWAP5 SWAP4 POP POP POP POP JUMP JUMPDEST PUSH1 0x0 DUP1 DUP6 DUP6 DUP6 DUP6 PUSH1 0x40 MLOAD PUSH1 0x20 ADD DUP1 DUP6 PUSH16 0xFFFFFFFFFFFFFFFFFFFFFFFFFFFFFFFF NOT AND PUSH16 0xFFFFFFFFFFFFFFFFFFFFFFFFFFFFFFFF NOT AND DUP2 MSTORE PUSH1 0x10 ADD DUP5 PUSH20 0xFFFFFFFFFFFFFFFFFFFFFFFFFFFFFFFFFFFFFFFF AND PUSH20 0xFFFFFFFFFFFFFFFFFFFFFFFFFFFFFFFFFFFFFFFF AND PUSH1 0x60 SHL DUP2 MSTORE PUSH1 0x14 ADD DUP4 PUSH20 0xFFFFFFFFFFFFFFFFFFFFFFFFFFFFFFFFFFFFFFFF AND PUSH20 0xFFFFFFFFFFFFFFFFFFFFFFFFFFFFFFFFFFFFFFFF AND PUSH1 0x60 SHL DUP2 MSTORE PUSH1 0x14 ADD DUP3 DUP2 MSTORE PUSH1 0x20 ADD SWAP5 POP POP POP POP POP PUSH1 0x40 MLOAD PUSH1 0x20 DUP2 DUP4 SUB SUB DUP2 MSTORE SWAP1 PUSH1 0x40 MSTORE DUP1 MLOAD SWAP1 PUSH1 0x20 ADD KECCAK256 SWAP1 POP DUP1 SWAP2 POP POP SWAP5 SWAP4 POP POP POP POP JUMP INVALID LOG2 PUSH5 0x6970667358 0x22 SLT KECCAK256 RETURNDATACOPY 0xC6 NUMBER PUSH1 0xB9 CALL 0xCB 0x4B SWAP15 0x1E LT PUSH29 0xB9AFA8B13EEE58CA9C95AB84C535A73B82DB828764736F6C6343000601 STOP CALLER "},"gasEstimates":{"creation":{"codeDepositCost":"609800","executionCost":"21511","totalCost":"631311"},"external":{"approve(bytes16,address,address,uint256)":"23744","createEscrow(bytes16,address,uint256)":"64534","escrowExists(bytes16,address,address,uint256)":"1708","release(bytes16,address,address,uint256)":"infinite"},"internal":{"getEscrow(bytes16,address payable,address payable,uint256)":"infinite","getEscrowHash(bytes16,address payable,address payable,uint256)":"infinite"}},"methodIdentifiers":{"approve(bytes16,address,address,uint256)":"6f6b360f","createEscrow(bytes16,address,uint256)":"14853e9e","escrowExists(bytes16,address,address,uint256)":"949001dc","release(bytes16,address,address,uint256)":"e95aa894"}},"storageLayout":{"storage":[{"astId":3,"contract":"PrivateEscrow.sol:PrivateEscrow","label":"owner","offset":0,"slot":"0","type":"t_address"},{"astId":7,"contract":"PrivateEscrow.sol:PrivateEscrow","label":"escrows","offset":0,"slot":"1","type":"t_mapping(t_bytes32,t_struct(Escrow)14_storage)"}],"types":{"t_address":{"encoding":"inplace","label":"address","numberOfBytes":"20"},"t_bool":{"encoding":"inplace","label":"bool","numberOfBytes":"1"},"t_bytes32":{"encoding":"inplace","label":"bytes32","numberOfBytes":"32"},"t_mapping(t_bytes32,t_struct(Escrow)14_storage)":{"encoding":"mapping","key":"t_bytes32","label":"mapping(bytes32 => struct PrivateEscrow.Escrow)","numberOfBytes":"32","value":"t_struct(Escrow)14_storage"},"t_struct(Escrow)14_storage":{"encoding":"inplace","label":"struct PrivateEscrow.Escrow","members":[{"astId":9,"contract":"PrivateEscrow.sol:PrivateEscrow","label":"exists","offset":0,"slot":"0","type":"t_bool"},{"astId":11,"contract":"PrivateEscrow.sol:PrivateEscrow","label":"senderApproved","offset":1,"slot":"0","type":"t_bool"},{"astId":13,"contract":"PrivateEscrow.sol:PrivateEscrow","label":"receiverApproved","offset":2,"slot":"0","type":"t_bool"}],"numberOfBytes":"32"}}},"userdoc":{"methods":{}}}